:020000040800F2
:10000000E8070020B501000885300008452C0008ED
:10001000813000086D0E0008393100080000000032
:10002000000000000000000000000000B5300008E3
:10003000710E00080000000089300008B930000887
:10004000CF010008CF010008CF0100089930000857
:10005000CF010008CF010008CF010008CF01000840
:10006000CF010008CF010008CF010008CF01000830
:10007000CF010008CF010008CF010008CF01000820
:10008000CF010008CF010008CF010008CF01000810
:10009000CF010008CF010008CF010008CF01000800
:1000A000CF010008CF010008CF010008CF010008F0
:1000B000CF010008CF01000800000000CF010008B8
:1000C000CF0100080000000000000000CF01000880
:1000D00000000000CF010008CF0100080000000070
:1000E000CF0100088D300008CF01000800F002F8B1
:1000F00000F051F80AA090E8000C82448344AAF171
:100100000107DA4501D100F046F8AFF2090EBAE86E
:100110000F0013F0010F18BFFB1A43F0010318473B
:100120001C4800003C480000103A24BF78C878C141
:10013000FAD8520724BF30C830C144BF04680C60ED
:10014000704700000023002400250026103A28BF35
:1001500078C1FBD8520728BF30C148BF0B60704739
:10016000642900F0C980752900F0C680782900F064
:10017000FF80732900F09D83002070471FB500F0B9
:100180001BFE04000020002104F016F9401C6060F2
:100190001FBD10B510BD00F0EAFD1146FFF7EEFFE0
:1001A00003F04AF800F00CFE03B4FFF7F2FF03BCC3
:1001B00000F054FE0948804709480047FEE7FEE783
:1001C000FEE7FEE7FEE7FEE7FEE7FEE7FEE7FEE707
:1001D00004480549054A064B7047000035310008C0
:1001E000ED000008E8010020E8070020E8030020F7
:1001F000E80300200FB41CB5084B06AA7B446946EF
:100200000090059800F023FB04460020694600F0AA
:1002100031FB20461CBC5DF814FB00007506000095
:100220000FB47CB50C0009AA009001D02044401EF8
:10023000084B7B4469460190089800F008FB05468E
:100240001CB10020694600F015FB28467CBC5DF817
:1002500014FB00004906000070B50446856900687B
:10026000C10601D5302600E02026C00707D070BDAA
:10027000D4E9012130469047206A401C20626D1E5F
:10028000F6D570BD70B5044685690078C00707D102
:1002900070BDD4E9012120209047206A401C2062D3
:1002A0006D1EF6D570BD70B50C460546012A05D009
:1002B0002878800600D5EA69002302E0012305E0E2
:1002C0005B1C934202D2E05C0028F9D1A869E618D1
:1002D000C01AA861286A184428622846FFF7BCFFA4
:1002E00004E0D5E9012114F8010B9047B442F8D39A
:1002F0002846FFF7C7FF70BD2DE9F04106460024F0
:1003000010687529314616A510D0AFF3008000287B
:1003100002DA404213A507E031688A0701D512A529
:1003200002E0490704D511A5012401E0AFF30080E4
:1003300000210A2206F1240709E0B0FBF2FCB0FB21
:10034000F2F302FB1C00303078541846491C002898
:10035000F3D123462A463046BDE8F04100F019BAF1
:10036000000000002D0000002B0000002000000015
:1003700070B504460D4621461068AFF30080218811
:10038000090502D50F4A7A4402E00E4A7A440E3239
:10039000002104F1240305E000F00F060009965D3A
:1003A0005E54491C0028F7D120780023000704D5AB
:1003B000702D02D009B1022311322046BDE87040F1
:1003C00000F0E7B95A4000002DE9F05F8946044685
:1003D0004FF0000ADFF824B1FB44C0F820A020460B
:1003E000E168884700287DD0252806D0D4E901217E
:1003F0009047206A401C2062F1E700255F462046B6
:10040000E16888472028064607DB312E05D2B81957
:1004100010F8200C08B10543F1E7A80701D525F035
:100420000405C4F81CA00027C4F818A02A2E09D07F
:10043000304603F0BAFF38B304EB8708303EC8F803
:10044000186019E059F8041B204604EB87029161FB
:10045000E1688847012F064618D1E069002820DAB4
:1004600025F020051DE0D8F8180000EB800006EB11
:1004700040003038C8F818002046E1688847064632
:1004800003F093FF0028EED1012F0AD02E2E08D1C1
:100490002046E16888477F1C0646022F45F020056C
:1004A000C4DBA069002803DA404245F00105A061E1
:1004B000E80701D025F01005A6B1A6F141001928E2
:1004C00002D8203645F400654A463146204625606C
:1004D0004D46FFF745FE60B1012807D0ED1D25F020
:1004E000070000E007E000F1080978E705F10409DA
:1004F00075E730467AE7206ABDE8F09F304000009B
:100500000FB400B58DB010A9099000910B904FF079
:10051000FF300A9000200C90064878440690064868
:1005200078446A4607900F9909A800F0DBF90DB0EE
:100530005DF814FBE7030000FF0300002DE9FF5FF7
:100540001D464FF0FF3B91464FF000085F46D5E94E
:100550000146A96901987F1C8847296A8246884715
:100560000028F6D1BAF1FF3F0CD0002E24F4C0646D
:1005700019DD600614D5BAF12B0F09D0BAF12D0F91
:100580000ED103E0584604B0BDE8F09F44F4806407
:10059000A96901987F1C8847761E8246002E02DDDD
:1005A000BAF1300F03D0B9F1000F26D032E0A969BB
:1005B000761E01987F1C44F400748847002E824602
:1005C00005DDBAF1780F06D0BAF1580F03D0B9F1B2
:1005D000000F10D01EE0B9F1000F02D0B9F1100FDA
:1005E00018D1A969761E01987F1C24F400748847ED
:1005F0008246102002E0082000E00A20814609E03F
:10060000A96908FB0908761E01987F1C44F4007450
:1006100088478246002E05DD4946504600F04DF9D8
:100620000028EDDAE96901988847A00502D46FF047
:100630000100A8E7E00725D1600613D5600502D5C3
:10064000C8F1000000E0404629680A1D2A600968D8
:10065000220501D5087015E0220701D5088011E0B8
:1006600008600FE02868011D29600068210502D597
:1006700080F8008006E0210702D5A0F8008001E0A4
:10068000C0F8008038467EE730B505460B462A465E
:1006900013F8014B12F8010B08B1A042F8D01CB1BD
:1006A000002802D06D1CF1E7284630BD2DE9F0414D
:1006B000054690460E460020044600E0641C444572
:1006C0000BD2285D00F058F80746305D00F054F872
:1006D000381A02D1295D0029F0D1BDE8F08110B5AA
:1006E000431C02E010F8011B71B18107FAD14FF0F1
:1006F000013202C88C1A8C4314EAC211F9D0C01A14
:100700000A0603D0C01E10BDC01A10BD0A0401D0D5
:10071000801E10BD0902FCD0401E10BD10B504465D
:1007200010F0030F08BF11F0030F40F015804FF0D9
:10073000013E121FC0F20E8051F8043BA3EB0E0CD9
:100740002CEA030C1CEACE1C08BF40F8043BF0D096
:10075000A1F1040102F10402521E08DB11F8013B71
:1007600000F8013B002BF7D1114600F0EBF82046D2
:1007700010BD70477047704710B5044600F004F98B
:100780000068005DC00602D504F1200010BD2046BF
:1007900010BD2DE9F0470D4699469246044600F1FA
:1007A00024080168880604D5E06921F01001216061
:1007B00000E00120A84201DD471B00E00027A169FD
:1007C0007A1902EB0900081AA0612078C00602D449
:1007D0002046FFF741FD002608E0D4E901211AF880
:1007E00006009047206A401C761C20624E45F4DBD0
:1007F0002078C0060AD52046FFF72EFD06E0D4E992
:10080000012130209047206A401C2062381EA7F149
:100810000107F4DC07E0D4E9012118F8050090474E
:10082000206A401C2062281EA5F10105F3DC204649
:10083000FFF728FD2078000602D50220BDE8F087EA
:100840000120FBE701694A1C02610878704700B586
:100850008FB0CDE901310021059105497944CDE9F9
:10086000031011466846FFF7AFFD0FB000BD000052
:10087000E5FFFFFF0A6802F8010B0A607047D1E943
:1008800000239A4202D2531C0B601070704710B5BF
:10089000436913B1AFF3008001E0FFF704FD0120CD
:1008A00010BD127800F124010A7000224A70012262
:1008B000EDE711684FF0FF32E9E73A2800D230380F
:1008C00020F02002412A01D3A2F13700884201D34F
:1008D0004FF0FF3070470000026811441378016048
:1008E00018467047D16005497944516104497944FB
:1008F000116200211161114600F058B8EDFFFFFFB1
:10090000A7000000426842B1016811F8013B23B121
:10091000521EC0E90012184670470121C160881EAE
:10092000704742685AB1C368016843B983688B4213
:1009300005D0491E521CC0E90012002070474FF03C
:10094000FF3070474FF000020429C0F0128010F011
:10095000030C00F0E781CCF1040CBCF1020F18BFCE
:1009600000F8012BA8BF20F8022BA1EB0C0100F02E
:10097000D9B95FEAC17C24BF00F8012B00F8012B34
:1009800048BF00F8012B704710B500F015FA001DA4
:1009900010BD00BF253A000010B50446FFF7F4FF74
:1009A0000068005D00F0010010BD00002DE9F34F6C
:1009B0004FF0000A0C4656468DB001200C9001F114
:1009C0000C000B9062690B9801219047051E2DD0F9
:1009D000252D2CD0216A8847C0B162690B9801216E
:1009E0009047216A88470028F7D16269411E0B9819
:1009F000904700E0761CA1690D988847216A8847D6
:100A00000028F7D1E1690D988847DBE7A1690D98C7
:100A10008847A842074601D1761CD3E7E1690D98C3
:100A200088477F1C02D1BAF1000F6FD06BE1626979
:100A30000B9800273D46394690472A2804D1626921
:100A40000B98012190470125DFF8D08262690B984D
:100A500001219047A0F130010A290AD24745E5DC7F
:100A600007EB870100EB4107303FDFD445F010056D
:100A7000ECE7E90601D46FF000476C280AD04C2857
:100A800014D0682815D06A280DD074281CD07A2874
:100A90001AD01DE062690B98012190476C2802D0A2
:100AA00045F0040514E045F002050DE045F0200591
:100AB0000AE062690B9801219047682802D045F04E
:100AC000080505E045F4006562690B98012190472F
:100AD000C4E9015765283DD019DC58287AD00CDCD0
:100AE000452837D004DC252826D041289ED131E086
:100AF00046282FD0472899D12CE05B2877D0612851
:100B000028D063287CD0642823D15AE0F6E06F28EF
:100B100048D008DC66281DD067281BD0692821D062
:100B20006E2816D127E0702845D0732868D0752824
:100B300047D078280DD14DE0A1690D988847252828
:100B400005463FF469AFE1690D9888476D1C3FF495
:100B50006AAFD8E00D9923466A466FF00100AFF303
:100B60000080C5E045F0400023464FF00002606081
:100B7000A80736D43EE0E8077FF447AF2068011DA0
:100B800021600068290501D506701BE7290701D5FA
:100B9000068017E7A90703D5F117C0E9006111E73F
:100BA00006600FE745F0400023464FF00802606002
:100BB000A80716D41EE040F60E0125EA0100606089
:100BC00016E045F0400023464FF00A026060A80797
:100BD00007D40FE045F040006060A80708D5234621
:100BE00010220D996FF00100AFF3008080E007E064
:100BF000102223460D996FF00100FFF79FFC77E06C
:100C00004FF0000963284F46C8464B46CB4602D0FA
:100C10005B2806D038E0E80601D40120A060012757
:100C200032E06269D4F80CB00B98012190475E283D
:100C300007D14FF0010949466269D4F80CB00B980E
:100C40009047216939B900210A4603AB43F82120B6
:100C5000491C0829FADBD8B3216949B308F1010816
:100C600062690B98012190475D28F4D1B9F1000F1A
:100C700009D0002003A951F82020D24341F82020B8
:100C8000401C0828F7DB03AB2069002820794FEAD5
:100C900040701ED05B462246CDF80080CDE901971A
:100CA0000D9900286FF0010020DAAFF300801FE0FB
:100CB000C11703AA00EBD1614B1121F01F0102EB18
:100CC0008302411A13680120884003431360C7E779
:100CD00019E00D99224600286FF00100009702DA12
:100CE000AFF3008004E0AFF3008001E0AFF30080D9
:100CF00000280ADA401C06D10C9820B14FF0FF30D2
:100D00000FB0BDE8F08F5046FAE7E90701D10AF1CC
:100D1000010A064400200C9054E60000CCCCCC0C18
:100D20004FF0000200B5134694469646203922BF84
:100D3000A0E80C50A0E80C50B1F12001BFF4F7AFCF
:100D4000090728BFA0E80C5048BF0CC05DF804EBB1
:100D5000890028BF40F8042B08BF704748BF20F81F
:100D6000022B11F0804F18BF00F8012B7047754619
:100D700000F030F8AE4605006946534620F0070003
:100D8000854618B020B5FFF723FABDE820404FF0A4
:100D900000064FF000074FF000084FF0000BAC4684
:100DA000ACE8C009ACE8C009ACE8C009ACE8C009CF
:100DB00021F007018D467047004870473000002041
:100DC00010B50446AFF300802046BDE81040FFF7A1
:100DD000EBB9000000487047100000204FF0013CC4
:100DE00050F8042B51F8043B9A4221D1A2EB0C039A
:100DF000934313EACC1317D150F8042B51F8043B5A
:100E00009A4215D1A2EB0C03934313EACC130BD1F6
:100E100050F8042B51F8043B9A4209D1A2EB0C0381
:100E2000934313EACC13DBD04FF00000704700BFB0
:100E3000D01A01BAB1FA81F101F0180122FA01F0D9
:100E4000CB40DBB2C0B2C01AC1F120012CFA01F3D1
:100E5000D11A914311EAC311E6D170470149182014
:100E6000ABBEFEE72600020070470000FEE7000070
:100E700070470000EFF3108072B640F2B400C2F287
:100E8000000009A11122642301F01AFE40F600447B
:100E9000C4F201042046012100F02CF94FF4FA704D
:100EA00000F00CF8F6E700BF4572726F72206F63B6
:100EB000637572726564210D0A000000B0B50446C6
:100EC00000F026F9054640F20000C2F2000000786A
:100ED000611C18BF044400BF00F01AF9401BA04277
:100EE000FAD3B0BD2DE9F04F82B00E68002E00F0AD
:100EF000F78041F20002C4F20102032340F2004EE7
:100F0000904208BF02234FF6FF7CC4F2010E00930B
:100F100000240123C1F2100C4FF0000B4FF0000928
:100F20004EE000BF40F60043C4F20103009D98422A
:100F300008BF012504F00C030F279F402AEA07078A
:100F400005FA03F33B4342F82630D1F804A040F2FF
:100F50000C455FEACA22DEF8082054BF22EA0802E4
:100F600042EA0802C4F20105CEF808202A685FEAC6
:100F70008A2354BF22EA080242EA08022A605FEA92
:100F80008A33DEF8042054BF22EA080242EA08024B
:100F90005FEACA33CEF80420DEF800204FF00103E8
:100FA00054BF22EA080242EA0802CEF800200E6886
:100FB0000BF1010B36FA0BF204F1040400F09080FF
:100FC00003FA0BF816EA080FF1D04E68664511DCFB
:100FD000122E55D8DFE806F0340A444854545454CD
:100FE0005454545454545454544C5000D1F80C900C
:100FF00046E000BF4FF6FF72C1F2210296420FDCBD
:101000000022C1F2110296421AD00022C1F212024D
:10101000964215D00022C1F22102964210D02FE054
:101020000022C1F2220296420AD00022C1F231020D
:10103000964205D00022C1F23202964220D100BF72
:101040008A684AB1012A14BFC0F81480C0F8108021
:101050004FF0080914E000BF4FF0040910E000BF92
:10106000CA6802F108090BE04FF0000908E000BF70
:10107000CA6802F1040903E0CA6802F10C0900BF62
:1010800022460546BBF1080F24BF203A04352E68DE
:101090000F279740BE4309FA02F232432A60CA7909
:1010A000D2067FF584AF41F21803C4F202031A6836
:1010B0004FEA9B0642F001021A601A6840F60003EC
:1010C00002F001020192019AAEF57E7252F826A05A
:1010D000C4F2010398427FF425AF00252AE700BF40
:1010E00002B0BDE8F08F00008068084018BF012002
:1010F00070470000C26802EA0103914341EA0341DC
:1011000001617047002A08BF0904016170470000AF
:1011100040F2E410C2F200000068704770B548B3B6
:1011200004460068D4E901124CF6CC43036045F252
:101130005553036041608260FFF7EAFF2168CA6887
:10114000920711D0054641F23D3602E0C86880079B
:101150000AD0FFF7DDFF401B2168B042F6D3C86814
:101160008007F3D0032070BD4AF6AA200860002053
:1011700070BD00BF012070BD01684AF6AA220020A0
:101180000A60704740F2000040F2E411C2F2000031
:10119000C2F2000100780A6810440860704700003D
:1011A00080B542F20000C4F20200016841F0100173
:1011B0000160032000F08AF80F2000F005F800F02D
:1011C00027F8002080BD000070B540F20006C2F292
:1011D000000640F208013278C2F200014FF47A733F
:1011E0000968B3FBF2F20446B1FBF2F1084601F0E4
:1011F0004BFA0F2C4FF0010508D838B94FF0FF30EB
:1012000021460022002500F035F87460284670BDA4
:1012100082B041F21800C4F202000168022241F0DB
:1012200001010160016801F001010191019941682A
:1012300041F080514160406800F08050009000987B
:101240000420C4F20100016862F31A61016002B077
:1012500070470000002848BF704700F01F010122BE
:1012600002FA01F14EF200124009CEF2000242F8F9
:101270002010704710B54EF60C5CCEF2000CDCF876
:101280000030C3F3022E8EF00704042C28BF042480
:10129000BEF103034FF0FF3E0EFA04F438BF002303
:1012A000A14399400EFA03F39A4300F00F03043B65
:1012B0001143634409010C3300F16042B0F1FF3F78
:1012C000C8BF02F56443197010BD00004EF60C5102
:1012D000CEF200010A684FF6FF031A4060F30A22BB
:1012E00042F0806040F0FD70086070472020C4F23A
:1012F0000E2001210160704780B5012818D0022816
:1013000036D0102832D141F20401C4F202010A6839
:1013100051F8040CC00129D5C2F383402DA3185CF9
:10132000D2033DD440F60012C0F23D02504343E0E8
:1013300041F20400C4F20200C16940F202320A40E4
:10134000B2F5817F04BF4FF4004080BD01F44071CD
:10135000B1F5407F1CD0B1F5007F07D1006A49F696
:101360004041800701EAE07080BD00BF002080BDE1
:1013700000F0B4F941F20401C4F20201096802224A
:10138000C1F3813102EB4101B0FBF1F080BD00BF40
:1013900050F8040C4FF22441800301EAE07080BD54
:1013A0000A6810A3C2F340429A5C41F20023C0F2E3
:1013B0007A03B3FBF2F250430968490248BF80BD8B
:1013C0004AF6AB214000CAF6AA21A0FB0101480859
:1013D00080BD00BF02030405060708090A0B0C0DB7
:1013E0000E0F1010010200002DE9F04182B00446FA
:1013F000007841F21C06C007C4F202064AD03068E9
:1014000010F0805808D1306840F08050306030686B
:1014100000F080500190019847F20007C4F20007E5
:101420003868C00512D4386840F480703860FFF71F
:101430006FFE05463868C00508D4FFF769FE401BFB
:101440006428F7D9032002B0BDE8F081706810F479
:10145000407012D0616801F4407188420DD070680C
:1014600040F24042C4F24222012320F44071136052
:101470000023C007136071602AD17068616820F48E
:1014800040700843B8F1000F706003D1306820F05D
:10149000805030602068810707D556F8181CA26874
:1014A00021F44041114346F8181CC00604D4002022
:1014B00002B0BDE8F08100BF56F8180CE16820F4D6
:1014C0008000084346F8180C002002B0BDE8F08107
:1014D000FFF71EFE054641F2883700BF706880079F
:1014E000CBD4FFF715FE401BB8424FF00300F5D9EF
:1014F000EBE700002DE9F04381B0002800F0858083
:1015000042F20008C4F202080446D8F800000D4672
:1015100000F0070088420CD2D8F8000020F0070045
:101520002843C8F80000D8F8000000F00700A842DF
:101530006BD1206841F204098107C4F2020917D572
:10154000410705D5D9F8001041F4E061C9F8001051
:10155000010705D5D9F8001041F46051C9F8001011
:10156000D9F80010A26821F0F0011143C9F8001069
:10157000C00741D1D8F8000000F00700A8420CD9FC
:10158000D8F8000020F007002843C8F80000D8F879
:10159000000000F00700A84237D12068410707D5B6
:1015A000D9F80010E26821F4E0611143C9F8001095
:1015B000000708D5D9F80000216920F4605040EAFE
:1015C000C100C9F80000D9F8002002F00C0008287A
:1015D00041F20020C0F27A0050D144F25A43C2F3E3
:1015E0008341C0F60003595CD2033BD440F600109F
:1015F000C0F23D00484341E0606802280AD001285B
:101600002AD159F8041C890308D4012001B0BDE88F
:10161000F08300BF59F8041C8901F6D5D9F80010F1
:1016200021F003010843C9F80000FFF771FD0646E9
:1016300041F28837D9F80000616800F00C00B0EB87
:10164000810F97D0FFF764FD801BB842F2D90320C9
:1016500001B0BDE8F08300BF59F8041C8907D4D558
:10166000DCE700BFD9F8002044F25843C2F34042FF
:10167000C0F600039A5C4843B0FBF2F0D9F80010C2
:1016800044F24042C1F30311C0F60002515C40F243
:10169000080220FA01F140F20400C2F200000068E2
:1016A000C2F200021160FFF78FFD002001B0BDE81B
:1016B000F083000040F2080041F20401C2F2000091
:1016C000C4F202010068096844F25042C1F30221E9
:1016D000C0F60002515CC8407047000040F20800AC
:1016E00041F20401C2F20000C4F20201006809687C
:1016F00044F25042C1F3C221C0F60002515CC8401E
:10170000704700002DE9F04182B0002868D00446FF
:10171000007841F20006C007C4F2020625D07068C6
:1017200000F00C0004281BD0706800F00C000828A2
:1017300002D17068C00313D46068002800F068818B
:10174000B0F5A02F00F07C81B0F5803F00F07C81E7
:10175000306820F480303060306820F4802076E1FA
:101760003068800301D56068D0B32078800718D531
:10177000706810F00C0F07D0706800F00C0008289B
:101780006ED17068C0036BD43068800702D52069C1
:10179000012825D13068616920F0F80040EAC100D5
:1017A0003060207800071FD42078400732D4E569E4
:1017B00095B1706800F00C00082840F08F80012D72
:1017C0000ED07068216A00F480328A4208D1616AC2
:1017D00000F47010884203D1002002B0BDE8F0810F
:1017E000012002B0BDE8F081A069002862D000208D
:1017F000C4F242200121C0F88014FFF789FC05469D
:10180000706A800700F18C80FFF782FC401B022881
:10181000F6D92AE1F06910F0805808D1F06940F05B
:101820008050F061F06900F080500090009847F21D
:101830000007C4F200073868C00529D4386840F4AE
:1018400080703860FFF764FC054600BF3868C0054B
:101850001ED4FFF75DFC401B6428F7D905E100BFEB
:101860002069002840F20000C4F2422000F082808B
:1018700001210160FFF74CFC054600BF306880077E
:101880003FF588AFFFF744FC401B0228F6D9ECE097
:10189000E068002800F08080052800F0978001288B
:1018A00000F09880306A20F001003062306A20F049
:1018B000040092E00020C4F242200021C0F880140D
:1018C000FFF726FC054600BF706A80077FF56CAF06
:1018D000FFF71EFC401B0228F6D9C6E00027C4F221
:1018E000422700203866FFF713FC022D05460BD176
:1018F0003068800140F1BE80FFF70AFC401B0228DF
:101900004FF00300F4D968E7306880017FF564AFD9
:10191000FFF7FEFB401B02284FF00300F4D95CE701
:1019200040F20800C2F20000006844F6D351C1F250
:101930006201A0FB0101480A019000BF00BF0198AD
:10194000411E002801913FF42FAF00BF0198411EB6
:10195000002801913FF428AF00BF0198411E0028E4
:1019600001913FF421AF00BF0198411E0028019171
:10197000E4D119E700210160FFF7CAFB054600BF6B
:10198000306880077FF50DAFFFF7C2FB401B0228D0
:101990004FF00300F4D920E7306A20F001003062F4
:1019A000306A20F004003062FFF7B2FB054641F2D6
:1019B000883700BF306A800720D5FFF7A9FB401B9E
:1019C000B8424FF00300F5D907E700BF306A40F096
:1019D00004003062306A40F001003062FFF798FB8B
:1019E000054641F2883700BF306A800706D4FFF70A
:1019F0008FFB401BB842F7D937E000BFB8F1000FAA
:101A00007FF4D5AEF06920F08050F061CFE600BFE2
:101A1000306820F480303060306820F480203060FE
:101A2000FFF776FB054600BF306880037FF59DAE6B
:101A3000FFF76EFB401B64284FF00300F4D9CCE69F
:101A4000306840F480203060306840F4803030608E
:101A5000FFF75EFB054600BF306880033FF585AEAB
:101A6000FFF756FB401B6428F6D9032002B0BDE8FF
:101A7000F08100BF206AB0F5803F05D17168A2688F
:101A800021F40031114371607168626A21F47411AC
:101A900010430843706001203866FFF739FB0446A5
:101AA000306880013FF598AEFFF732FB001B02283B
:101AB0004FF00300F4D990E646F60040C4F200006F
:101AC00050F8210080B2704790B246F60042C4F24E
:101AD000000242F821007047704700007047000084
:101AE00010B5044600680168C9071CBF41685FEA79
:101AF000C17101D110BD00BF406840070AD4204623
:101B0000FFF7EAFF012060742068416821F00101BD
:101B1000416010BD2046FFF7E1FF20686FF004012F
:101B2000416004216174416821F00101416010BDF0
:101B30007047000010B5044600680168890744BF7B
:101B400040685FEA807009D440F21440C4F201009A
:101B50004FF4003101600120607410BD2046FFF792
:101B6000E7FF2068416821F002014160ECE70000D6
:101B70002DE9F04782B0064600208DF80600ADF84A
:101B80000400002E4FF0010056D00C46002953D01F
:101B9000154601A93046002200F056F820B1012078
:101BA00002B0BDE8F08700BF337B717BB07BF27B76
:101BB000002D2370E2706170A07041D04CF6CD4CC6
:101BC000A1F10A09CCF6CC4C5FFA89F3A2F10A0E16
:101BD000A3FB0C3A5FFA8EF6A0F10A03A6FB0C6891
:101BE000DDB2A5FB0C564FEAD80505EB85054FF095
:101BF000010CAEEB45050CEBD807092A88BF45EA76
:101C00000712E2704FEADA0202EB8202A9EB42020B
:101C10000CEBDA07092988BF42EA07116170F10865
:101C200001EB8101A3EB41010CEBD602092888BF2F
:101C300041EA0210A070002002B0BDE8F08700BFAA
:101C4000002002B0BDE8F0872DE9F04F81B00646D4
:101C500000284FF0010000F0BF808A46002900F004
:101C6000BB8030684168490700F1D680934682699D
:101C7000C169836945F2801483EA02073F041CBFEF
:101C8000C1691A4689B241EA02454BF2C531C9F22F
:101C9000A211A5FB0112D10A4FF4616201FB12529D
:101CA00048F6890793B2C8F68807A3FB07377B0974
:101CB0008AF801301B01C0F20104A3EB5713A2EB19
:101CC0008302631E9D428AF8022039D944F20752EA
:101CD000CCF22E22A5FB02274AF6AB22CAF6AA2294
:101CE000A1FB02231A0902EB4202A1EBC2018AF80E
:101CF0000010016A406A4AF6806480B240EA0140FE
:101D0000B0EB0508CFF6FE7400974FEA174298BF74
:101D10004FF0FF38411C02FB0459144608BF8046AF
:101D2000FFF7F6F9074600BF30684168890657D4C7
:101D3000FFF7EEF9C01BB0F57A7FF5D96CE000BF74
:101D40008AF80010BBF1000F00F0F4819AF800103F
:101D50004CF6CD4CA1F10A0E9AF801205FFA8EF0F4
:101D6000CCF6CC4CA0FB0C08A2F10A099AF80200B0
:101D70005FFA89F4A4FB0C47A0F10A04E3B2A3FBC9
:101D80000C364FEAD80303EB83034FF0010CAEEBA4
:101D900043030CEBD805092988BF43EA05118AF8EB
:101DA0000010F90801EB8101A9EB41010CEBD7030D
:101DB000092A88BF41EA0312F10801EB81018AF880
:101DC0000120A4EB41010CEBD602092888BF41EAAF
:101DD00002108AF80200002001B0BDE8F08F00BFB9
:101DE000416841F0100141604FEA194181611FFAD9
:101DF00089F1C161416821F010014160FFF788F964
:101E0000074600BF30684068800609D4FFF780F9B4
:101E1000C01BB0F57A7FF5D9012001B0BDE8F08F85
:101E200018F1010012D0C844FFF772F9074600BF4D
:101E300030684168890619D4FFF76AF9C01BB0F50C
:101E40007A7F4FF00100F3D9C6E700BFFFF760F9D2
:101E5000074630684168890626D4FFF759F9C01B48
:101E6000B0F57A7F4FF00100F3D9B5E7416841F052
:101E7000100141604FEA184101621FFA88F1416286
:101E8000416821F010014160FFF742F907463068D0
:101E90004068800624D4FFF73BF9C01BB0F57A7F79
:101EA0004FF00100F3D997E7416841F0100141601C
:101EB0004FF6FF7101624162416821F010014160FB
:101EC000FFF726F9074630684068800608D4FFF718
:101ED0001FF9C01BB0F57A7F4FF00100F3D97BE703
:101EE00045F28013727BB17B96F80FE0C0F20103DC
:101EF0009D42C0F0DF804AF68060CFF6FE70284435
:101F0000984204F0010C17D2BCF1000F00F0D2800F
:101F10000C2A00F2CF800120904041F2AA531842CF
:101F200000F0BE801F29C0F0C0800C2A40F0C080A5
:101F30000EF1010E0122BCE0009B6FF0010000EAEF
:101F4000134045F6294845F628494DF20B7447429F
:101F5000012341F2AA50CCF28F28C0F28F29C0F29F
:101F6000A30402E001310237CED00C2A16D803FABE
:101F700002F5054208D01E290BD90C2A0CD10EF10E
:101F8000010E012209E000BF15F4256F1ED01D29A6
:101F900002D8013102E000BF013201210C2AE2D84F
:101FA00003FA02F5054209D01F29DBD30C2A0AD116
:101FB0000EF1010E01220121D5E700BF15F4256FB6
:101FC0000CD01E29CED301320121CCE7022AE5D163
:101FD0001B290BD801310222E0E700BF022AC2D13F
:101FE0001C290DD201310222BDE700BF1D290DD0F1
:101FF0001C290FD15FEA8E7116D0002127E000BFA7
:102000000AD01D290ED101210322ACE701210322B0
:10201000C4E700BF0222C1E75FEA8E7122D000212F
:1020200033E000BF02229EE71FFA8EF101FB08F1A8
:102030004FEAB1024A454FF000024FEA311188BF22
:102040000122A1424FF0000138BF012111430029B4
:102050004FF002024FF01D0108BF032208BF01210B
:102060009CE700BF1FFA8EF101FB08F14FEAB102B5
:102070004A454FF000024FEA311188BF0122A142C8
:102080004FF0000138BF0121114300294FF0020237
:102090004FF01D0108BF032208BF012163E700BF05
:1020A00010F4256F4AD01E2902D2013102E000BF90
:1020B00001320121D0B272731722022802FB00F014
:1020C00048F63962C3F6E30286F80FE0B17307D829
:1020D000A0FB020250080EF2CF7240F2D47306E069
:1020E000A0FB02030EF5FA62580840F2D27348F2E0
:1020F0001F57C5F2EB177344A2FB077503EB92025F
:10210000A2EB5512C9B202EBD5121144084444F6B1
:102110002511C2F29241A0FB0112811A02EB51017A
:102120008A08D200A2EB9101401A3073BBF1000F74
:102130007FF40CAE002001B0BDE8F08F022AB9D1C7
:102140001C2903D201310222B4E700BF04D01D29AB
:1021500008D101210322ADE75FEA8E7004D001208F
:1021600021E000BF0222A5E745F629411FFA8EF0C3
:10217000CCF28F21484345F629424FEAB001C0F224
:102180008F2291424DF20A724FF000034FF000018E
:102190004FEA3010C0F2A30238BF0121904288BF3D
:1021A000012301EA030002221D21002818BF032297
:1021B00018BF01217EE7000070B5002866D00446F4
:1021C000407C20B900202074204600F06FF80220E7
:1021D00060742068416821F008014160FEF798FFB3
:1021E000064600BF20684568FEF792FF29070546AE
:1021F0000ED4A81BB0F57A7FF4D9012504206074B1
:10220000284670BDFEF784FF401BB0F57A7FF4D8F6
:10221000216848688006F5D5486846F62C4240F0AB
:10222000100048604868C4F2000220F007004860CF
:10223000A06818B1536823F001035360136823F4B6
:102240006073184310606068421C06D101200125AC
:10225000FFF752F830B321680138C0F3034280B26F
:102260008A60C860486820F010004860FEF750FFA0
:10227000054600BF20684068800609D4FEF748FF85
:10228000401BB0F57A7FF5D9B7E700BF012070BDDC
:1022900040F201100025A4F80D000120E5736074E0
:1022A000284670BD04206074284670BD80B582B099
:1022B000006842F60001C4F2000188421CBF02B06F
:1022C00080BDFFF713F841F21C00C4F20200016860
:1022D000002241F0006101600068012100F000600F
:1022E0000190019840F23C40C4F24220016003207A
:1022F0000021FEF7BFFF0320FEF7ACFF29200021DD
:102300000022FEF7B7FF292002B0BDE88040FEF7AB
:10231000A1BF000070B5044600284FF0010018BFAF
:10232000002901D170BD00BF207C01284FF00200C0
:1023300008BF70BD012323746074C878C2B102095C
:1023400002EB820200F00F0000EB42004A788E7828
:10235000130903EB830302F00F0202EB430332097C
:1023600002EB820206F00F0606EB420202E000BF1B
:102370004B788A78E073022BC0B26373A2731DD8C6
:102380001726734348F63966C3F6E306A3FB063CFB
:1023900000F2CF7348F21F55D2B200EB9300C5F2A2
:1023A000EB151044A3FB055600EB5C00A0EB5610A8
:1023B00000EBD61000F2D4701DE000BFDBB2172690
:1023C000734348F63966C3F6E306A3FB063C00F503
:1023D000FA6348F21F55C5F2EB15D2B200EB930039
:1023E000A3FB05561044A0EB561000EBD61000EBF3
:1023F0005C0000F2D27044F6251280B2C2F2924222
:10240000A0FB0223C21A03EB52029208A2EBC20203
:1024100010442268207308709169D069936983EA37
:10242000010636041CBFD069194680B240EA01405B
:1024300045F69071C0F2010188426FD344F2075112
:10244000CCF22E21A0FB0112110C40F2A322514329
:10245000A0EBC116FEF75CFE054600BF2068416890
:10246000890607D4FEF754FE401BB0F57A7FF5D9F4
:102470001AE000BF416841F010014160310C8161F8
:10248000B1B2C161416821F010014160FEF740FE28
:10249000054600BF2068416889060BD4FEF738FE68
:1024A000401BB0F57A7FF5D90420607400202074B9
:1024B000012070BD016A406A80B240EA0140B0422A
:1024C0002CD200F5803000F5A346FEF721FE05462C
:1024D00020684168890607D4FEF71AFE401BB0F554
:1024E0007A7FF5D9E0E700BF416841F01001416013
:1024F000310C0162B1B24162416821F010014160CA
:10250000FEF706FE054620684068800606D4FEF702
:10251000FFFD401BB0F57A7FF5D9C5E70120607457
:102520000020207470BD000070B5044600284FF0F4
:10253000010018BF002901D170BD00BF207C012817
:102540004FF0020008BF70BD012323746074087847
:1025500002B3020902EB820200F00F0000EB42001E
:10256000C0B24FF4616250434A788978130903EB93
:10257000830302F00F0202EB4302D2B2C2EB02125B
:1025800000EB82000A0902EB820201F00F0101EB6D
:10259000420108E04FF4616250434A788978C2EB07
:1025A000021200EB8200C9B24618FEF7B1FD0546E3
:1025B00020684168890607D4FEF7AAFD401BB0F5E4
:1025C0007A7FF5D91AE000BF416841F010014160FF
:1025D000310C8161B1B2C161416821F010014160EB
:1025E000FEF796FD054600BF2068416889060BD4BA
:1025F000FEF78EFD401BB0F57A7FF5D9042060749C
:1026000000202074012070BD416821F00501416067
:10261000016A406A80B240EA0140B0422ED200F521
:10262000803000F5A346FEF773FD0546206841683B
:10263000890607D4FEF76CFD401BB0F57A7FF5D90B
:10264000DCE700BF416841F010014160310C0162DC
:10265000B1B24162416821F010014160FEF758FDBE
:10266000054600BF20684068800607D4FEF750FD8D
:10267000401BB0F57A7FF5D9C0E700BF0120607438
:102680000020207470BD0000411E0020B0EB116FCF
:102690001CBF012070474EF21002CEF200025160C2
:1026A0004EF62351CEF20001F0230B70072190600B
:1026B00011607047002804BF0120704710B5044620
:1026C00090F8410028B9002084F84000204600F02E
:1026D00061F8242084F841002068D4E90212C3681C
:1026E00023F40053C360036923F440531A43026187
:1026F000D4E904231143C268194341F20C639A439D
:102700001143C1604169A26921F44071114343F64C
:102710000002C4F201029042416103D0FEF7CAFFF9
:1027200002E000BFFEF7DAFF62681921484391001A
:10273000B0FBF1F048F21F51C5F2EB11A0FB0123F1
:102740005A096FF0630302FB0300322303EB00100E
:10275000A0FB0101F02303EA5113206803EB0212EE
:10276000C1F3431111448160016921F49041016179
:10277000416921F02A014161C16841F40051C16001
:1027800000202021606484F8411084F842106063C6
:1027900010BD000010B586B0006844F2004140F65C
:1027A0000004C4F20001C4F2010488424FF00001A9
:1027B000CDE90411CDE902112AD043F60001C4F29B
:1027C000010188424DD141F21800C4F202000168B3
:1027D00041F480410160016801F480410191019957
:1027E000016841F004010160006802A900F00400E2
:1027F000019001984FF40070029002200390032092
:1028000005902046FEF76EFB4FF4806021E000BF8C
:1028100041F21800C4F20200416841F40031416005
:10282000416801F4003101910199016841F004010E
:102830000160006802A900F00400019001980420E2
:10284000029002200390032005902046FEF74AFBE9
:10285000082002900020CDE9030002A92046FEF7DF
:1028600041FB06B010BD00002DE9F04182B00446E6
:1028700090F84200202840F091800D4600294FF04A
:1028800001005AD01746002A57D04FF000082220E6
:102890001E46C4F8448084F84200C4F83080FEF735
:1028A00037FCA785E785A1680746B1F5805F05D1AC
:1028B0002069002814BF2846A8460546E08DC0B30D
:1028C000701C49D020680168890614D4002E00F0DD
:1028D000F38000BFFEF71CFCC01BB04200F2E48096
:1028E0002068C168490744BF01685FEA017159D493
:1028F00001688906EED55DB1A168B1F5805F0FD0A2
:1029000009B9216961B1406800F07F0009E000BFAA
:10291000406800256FF35F2028F8020B03E000BF3A
:10292000406805F8010BE08D0138E085E08D002856
:10293000C8D1202084F84200002002B0BDE8F08118
:10294000406800256FF35F2028F8020BE08D013806
:10295000E085E08D0028ECD02068016889065FBF23
:1029600001685FEA816101685FEA816102D4016800
:102970008906F2D5002DE3D0A168B1F5805F09D0BA
:1029800009B9216931B1406800F07F0005F8010BF9
:10299000DCE700BF406805F8010BD7E7022002B072
:1029A000BDE8F08100210191016801914168019128
:1029B000019950E8030F216820F4907041E8030268
:1029C000BAB3206850E8030F216820F4907041E802
:1029D000030272B3206850E8030F216820F490705E
:1029E00041E803022AB3206850E8030F216820F46D
:1029F000907041E80302E2B12068DAE7206850E80D
:102A0000050F216820F0010041E80502DAB12068D5
:102A100050E8050F216820F0010041E8050292B15D
:102A2000206850E8050F216820F0010041E8050208
:102A30004AB1206850E8050F216820F0010041E804
:102A40000502002ADAD1206B012824D1206850E841
:102A5000030F216820F0100041E80302DAB120687A
:102A600050E8030F216820F0100041E8030292B102
:102A7000206850E8030F216820F0100041E80302AD
:102A80004AB1206850E8030F216820F0100041E8A7
:102A90000302002ADAD1202084F842000020082115
:102AA0002063616484F84000202084F84200032001
:102AB00002B0BDE8F08100BFFEF72AFBF4E700009A
:102AC0002DE9F041044690F8410020281CBF022067
:102AD000BDE8F0810F4600294FF0010000F0B08002
:102AE0001646002A08BFBDE8F0814FF000082120FB
:102AF0001D46C4F8448084F84100FEF709FBA68413
:102B0000E684A1680646B1F5805F05D120690028FA
:102B100014BF3846B8460746E08CC8B1681C19D0C7
:102B2000002D5FD120680AE038F8021B00276FF300
:102B30005F214160E18C0139E184E18C51B301688E
:102B400009066FD5002FEFD017F8011BF1E700BF82
:102B500020681FE0206802E00168090609D40168C6
:102B600009065FBF01685FEA016101685FEA016110
:102B7000F2D51FB117F8011B05E000BF38F8021BA2
:102B800000276FF35F214160E18C0139E184E18C22
:102B90000029E4D10168490611D4002D4AD0691CEE
:102BA00019D100BF016849065FBF01685FEA416152
:102BB00001685FEA416102D401684906F2D520202C
:102BC00084F841000020BDE8F08100BF2068C168A2
:102BD00000684006F3D4FEF79BFA801BA842F5D9A3
:102BE0002AE000BF206800BF0168090608D4FEF78C
:102BF0008FFA801BA84217D82068C168F4E700BF8D
:102C000017B117F8011B04E038F8021B00276FF317
:102C10005F214160E18C0139E184E18C0029E3D13D
:102C2000B8E700BFFEF774FA202084F841000320C3
:102C3000BDE8F081FEF76CFA202084F84100032003
:102C4000BDE8F081FEE70000F0B585B041F2180064
:102C5000C4F20200016840F6004441F01001016036
:102C60000168C4F2010401F01001019101990168A9
:102C7000002241F02001016001684FF4F04501F0AD
:102C80002001019101990168002641F004010160D1
:102C9000016801F0040101910199016841F0080106
:102CA000016000684FF4F04100F0080001900198C5
:102CB0002046FEF727FA0195022001AD0127049076
:102CC00020462946CDE90276FEF70CF94FF4C050B4
:102CD00001A9C1C1A4F580602946FEF703F905B03A
:102CE000F0BD000080B540F2940043F20001C2F252
:102CF0000000C4F20001062240F6FF7380E80E00D7
:102D0000FEF70CFA002808BF80BDBDE88040FEF742
:102D1000B1B80000F0B59FB000208DF87A00ADF892
:102D200078001D9040F2A00042F60001C2F20000BF
:102D3000C4F2000147F6FF724FF4807380E80E0082
:102D4000FFF73AFA002818BFFEF794F88BA001F0BD
:102D50001DFBFEF7CBFA40F2A000C2F200000121F9
:102D6000FEF7AAFE044604AD8BA128462246FDF7D5
:102D700041FA284601F00AFB43F2F220844240F077
:102D8000878044F6FB00C0F6000001F0FFFA44F62D
:102D9000A300C0F6000001F0F9FA40F2A007C2F269
:102DA000000738460221FEF787FE8DF87700384687
:102DB0000321FEF781FE8DF8750038460421FEF7E9
:102DC0007BFE9DF875109DF87720032938BF013AE6
:102DD00002F5FA6248F21F5593B2C5F2EB15A3FB58
:102DE000053538BF0C31C9B20D2359434CF6CD43DC
:102DF0000D31CCF6CC43A1FB03136909642401FB1C
:102E00001422C6B294B2324402EBD51201EB810116
:102E100002EB9402114401EB930144F6251289B2AE
:102E2000C2F29242A1FB02368B1B06EB53039B08B6
:102E3000A3EBC30319440531A1FB02238DF87600EF
:102E4000C81A03EB50008008A0EBC0000844013012
:102E50008DF8740038460521FEF72EFE8DF87400BB
:102E60001DA938460022FFF755FA002818BFFEF7C3
:102E700001F840F2A004C2F200041EA9204600227C
:102E8000FEF7E2FE1DA920460022FEF771FE4BE090
:102E900049A001F07BFA43F20910ADF878000F2049
:102EA0008DF87A0040F2A000C2F200001EA90022B4
:102EB000FFF73AFB002818BFFDF7DCFF40F60110D2
:102EC000C1F608101D9040F2A000C2F200001DA93A
:102ED0000022FFF71FFA002818BFFDF7CBFF40F2D2
:102EE000A004C2F200042046012143F2F222FEF7C0
:102EF000EBFD9DF8772020460221FEF7E5FD9DF8C9
:102F0000752020460321FEF7DFFD9DF87620204640
:102F10000421FEF7D9FD9DF8742020460521FEF717
:102F2000D3FD2EA001F032FA40F2A004C2F2000458
:102F30001EA920460022FEF787FE1DA9204600227A
:102F4000FEF716FE9DF877009DF878109DF8753015
:102F50009DF876209DF879709DF87A608DE8830061
:102F600044F6CD0104ACC0F6000120460396FDF7FF
:102F700041F9204601F00AFA1FB0F0BD4D585F52EA
:102F800054435F496E697420737461727465642E72
:102F90002E2E0D0A000000004261636B75702072D6
:102FA000656769737465722076616C75653A203067
:102FB00078253034580D0A0053657474696E6720A3
:102FC000696E697469616C206461746520616E6406
:102FD0002074696D652E2E2E0D0A0000496E6974ED
:102FE00069616C206461746520616E642074696D30
:102FF0006520736574207375636365737366756CA0
:103000006C790D0A0000000080B540F2B40043F670
:103010000001C2F20000C4F2010100234FF00C0CC9
:103020004FF4E13280E80E00C0E90333C0E905C384
:10303000C361FFF73FFB002808BF80BDBDE88040AB
:10304000FDF718BF80B540F2FC0044F20041C2F227
:103050000000C4F2000100234FF00C0C4FF4165294
:1030600080E80E00C0E90333C0E905C3C361FFF780
:1030700021FB002808BF80BDBDE88040FDF7FABEF7
:10308000FEE70000FEE700007047000040F2A000ED
:10309000C2F20000FEF74EBD10B540F2A004C2F22D
:1030A00000042046FEF71CFD2046BDE81040FEF758
:1030B00041BD000070470000FEF764B8B0B594B0A1
:1030C0000D2000240A904FF480300225CDE90B0436
:1030D000CDE911504FF4E010012113900AA80F948C
:1030E0000994CDE90744CDE90544CDE90344CDE990
:1030F0000144CDE90D111091FEF704FBC0B90F207A
:10310000CDE905054FF48060CDE9080405A802214A
:103110000794FEF7EFF958B9012001904FF4807041
:10312000029001A8FEF760F9002804BF14B0B0BDFA
:10313000FDF7A0FE70470000FEE700004EF60C50C1
:10314000BFF34F8FCEF200000168042201F4E0616A
:10315000C0F2FA5211430160BFF34F8F00BF00BFAE
:1031600000BF00BFFAE700002DE9F04381B0FEF791
:10317000BDF840F2A000C2F200000121FEF79CFC65
:1031800043F2F22188423FD140F2A006C2F200068B
:1031900030460621FEF790FC044630460721FEF734
:1031A0008BFC804630460821FEF786FC07463046F9
:1031B0000921FEF781FC054630460A21FEF77CFC1A
:1031C00040F27003210A4FEA18224FEA17294FEA0A
:1031D000152E4FEA102C04F00106C2F20003C4F3CE
:1031E00040049E72DC72597383F803801A719F73D6
:1031F00083F805909D7183F80FE0D87183F808C0BB
:1032000001B0BDE8F08300BF40F27000C2F20000E0
:10321000002141810821417340F21441A0F80310BC
:1032200041F21571C1814FF03721C0F8051001B08E
:10323000BDE8F04300F06EBBF0B0FDF7B1FFFFF763
:103240003DFFFFF701FDFFF765FDFFF7DDFEFFF72F
:10325000F9FEFFF747FD40F2B400C2F200000FF2A2
:10326000246114226423FFF72BFCFFF77DFF40F25B
:10327000FC04C2F200040FF22461204613226423EE
:10328000FFF71EFC4FF4FA70FDF718FE44F2984168
:10329000C0F60001204604226423FFF711FC48AD6C
:1032A000284664214FF47A7200F06CFF44F26A41C0
:1032B000C0F6000120460B226423FFF701FC2846DC
:1032C00064214FF47A7200F05DFF40F2700B40F21F
:1032D000A006C2F2000BC2F200060BF11601304646
:1032E00000220691FEF7B0FC0BF11908304641466A
:1032F0000022FEF73DFC9BF81C2030460221FEF721
:10330000E3FB9BF81A2030460321FEF7DDFB9BF818
:103310001B2030460421FEF7D7FB9BF819203046CE
:103320000521FEF7D1FB9BF8196044F22045C0F659
:1033300000059BF81C009BF816109BF8177055F8B9
:1033400026609BF81B209BF81A309BF818C0CDE92B
:103350000006CDE902170FF258512FA8CDF810C082
:10336000FCF748FF9BF803009BF8041048F689021D
:10337000014488B2C8F68802A0FB02029BF80D0047
:1033800053091B0100EB5210A3EB5212C7B2A1EB81
:1033900082018BF81400182F8BF8151024BF1838F1
:1033A0008BF814009BF805009BF8061048F689027C
:1033B000014488B2C8F68802A0FB02029BF80E0006
:1033C00053091B0100EB5210A3EB5212C7B2A1EB41
:1033D00082018BF81200182F8BF8131024BF1838B5
:1033E0008BF812009BF807009BF8081048F689023A
:1033F000014488B2C8F68802A0FB02029BF80F00C5
:1034000053091B0100EB5210A3EB5212C7B2A1EB00
:1034100082018BF81000182F8BF8111024BF183878
:103420008BF8100040F2B400C2F200000FF2AC4181
:1034300011226423FFF744FB40F2A00944F2204725
:10344000C2F200090DF5C27AC0F6000742E000BFE3
:1034500040F2FC0044F28441C2F20000C0F60001D8
:1034600013224FF47A73FFF72BFB02208BF809002D
:103470009BF819409BF816109BF817609BF81C00EE
:1034800057F824409BF81B209BF81A309BF81850E3
:10349000CDE9021644F29D41CDE900045046C0F644
:1034A00000010495FCF7A6FE5046FDF718F982B21C
:1034B00040F2B400C2F2000051466423FFF700FB63
:1034C0004FF4FA70FDF7FAFC40F29400C2F20000EB
:1034D000FDF752FE069948460022FEF7B5FB484626
:1034E00041460022FEF744FB40F2FC0044F26A41F0
:1034F000C2F20000C0F600010B226423FFF7E0FADD
:103500006420FDF7DBFC9BF80C0060B144F24A50EC
:1035100040F24411C0F60000C2F2000100F0CAFE01
:1035200000208BF80C0007A8A02100F035FA9BF8CA
:103530000B00002800F06A819BF80000002851D1A0
:103540009BF80D009BF8161081424BD19BF80300AD
:103550009BF81710814245D140F60040C4F20100AB
:103560004FF480510122FDF7CDFD01208BF80000C2
:103570009BF8191044F220459BF81A209BF81C4038
:10358000C0F600059BF8160055F821109BF81B307B
:103590009BF81760CDE900242FAC44F2BE62CDE960
:1035A000021020466421C0F600020496FCF738FEA3
:1035B00044F24A50C0F60000214600F07BFE9BF822
:1035C00003009BF80410084448F68901C8F68801F6
:1035D000A0FB011251090901A1EB5211A0EB8100DE
:1035E0008BF815009BF80000F0B19BF814009BF8D5
:1035F0001610814218D19BF815009BF817108142D4
:1036000012D140F60040C4F201004FF48051002274
:10361000FDF778FD00208BF8000044F24A50C0F618
:103620000000B3A100F046FE9BF80100002851D134
:103630009BF80E009BF8161081424BD19BF80500B9
:103640009BF81710814245D140F60040C4F20100BA
:103650004FF400510122FDF755FD01208BF80100C8
:103660009BF8191044F220459BF81A209BF81C4047
:10367000C0F600059BF8160055F821109BF81B308A
:103680009BF81760CDE900242FAC44F2E862CDE945
:10369000021020466421C0F600020496FCF7C0FD2B
:1036A00044F24A50C0F60000214600F003FE9BF8A9
:1036B00005009BF80610084448F68901C8F6880101
:1036C000A0FB011251090901A1EB5211A0EB8100ED
:1036D0008BF813009BF80100F0B19BF812009BF8E7
:1036E0001610814218D19BF813009BF817108142E5
:1036F00012D140F60040C4F201004FF40051002204
:10370000FDF700FD00208BF8010044F24A50C0F69E
:1037100000007AA100F0CEFD9BF80200002851D1F4
:103720009BF80F009BF8161081424BD19BF80700C5
:103730009BF81710814245D140F60040C4F20100C9
:103740004FF480410122FDF7DDFC01208BF80200DF
:103750009BF8191044F220459BF81A209BF81C4056
:10376000C0F600059BF8160055F821109BF81B3099
:103770009BF81760CDE900242FAC44F21272CDE91A
:10378000021020466421C0F600020496FCF748FDB2
:1037900044F24A50C0F60000214600F08BFD9BF831
:1037A00007009BF80810084448F68901C8F688010C
:1037B000A0FB011251090901A1EB5211A0EB8100FC
:1037C0008BF811009BF8020008B39BF810009BF8DF
:1037D000161081421BD19BF811009BF817108142F3
:1037E00015D140F60040C4F201004FF480410022A0
:1037F000FDF788FC00208BF8020044F24A50C0F626
:10380000000041A100F056FD01E000BF00BF9BF8A1
:103810000A0000283FF42CAE40F60040C4F201003C
:10382000A0F580604FF48051FDF75EFC00287FF426
:103830001FAEFDF76DFCDBF820104DF60152411A6A
:10384000C0F26D02914205D3CBF8200000208BF826
:10385000090007E09BF8090001283FF4F9AD0028B2
:103860007FF406AE44F24A5044F2C471C0F6000040
:10387000C0F6000100F01EFD4FF4FA60FDF71EFBDC
:103880000120F3E550726F6772616D20737461728D
:103890007465642E2E2E0D0A0000000041542B4347
:1038A0004E4D493D322C322C302C302C300D0A003C
:1038B00052656164793A20253032642F25303264B4
:1038C0002F32302530326420257320253032643A7F
:1038D000253032643A253032640000004D6F737435
:1038E0006166612041746165650D0A0D0A00000082
:1038F0004C454431206973204F4646004C454432C4
:10390000206973204F4646004C454433206973209C
:103910004F4646002DE9F041FDF7E8FC40F270000B
:10392000C2F20000827AC77A02F0010241798379FB
:1039300067F34102477B857BC47B42EA072245EA65
:10394000012743EA042540F2A004C2F20004B0F8C3
:103950000360B0F8078020460621FEF7B5F8204640
:1039600007213246FEF7B0F8204608213A46FEF716
:10397000ABF8204609212A46FEF7A6F820460A2180
:103980004246FEF7A1F82046012143F2F222BDE8AB
:10399000F041FEF799B800002DE9F04FFBB0044666
:1039A00040F2FC000D46C2F200000FF22C710B2217
:1039B0006423FFF785F849AE3046C8214FF4FA6218
:1039C00000F0E0FB013D204631462A46FCF7A6FE0A
:1039D000002060550FF20C712046FCF755FEB8B17F
:1039E00040F60040C4F201004FF48051012201244E
:1039F000FDF788FB40F27000C2F20000047044F250
:103A00004A50C0F600000FF2E86100F053FC37E1C5
:103A10000FF2F4612046FCF737FEB8B140F60040E3
:103A2000C4F201004FF4805100220024FDF76AFB2C
:103A300040F27000C2F20000047044F24A50C0F636
:103A400000000FF2D06100F035FC19E10FF2E061E7
:103A50002046FCF719FEB8B140F60040C4F2010060
:103A60004FF4005101220124FDF74CFB40F270009D
:103A7000C2F20000447044F24A50C0F600000FF257
:103A8000B86100F017FCFBE00FF2C4612046FCF7C0
:103A9000FBFDB8B140F60040C4F201004FF4005104
:103AA00000220024FDF72EFB40F27000C2F200005D
:103AB000447044F24A50C0F600000FF2A06100F0DA
:103AC000F9FBDDE00FF2AC612046FCF7DDFDC8B18B
:103AD00040F60040C4F201004FF48041012201246D
:103AE000FDF710FB40F27000C2F20000847044F257
:103AF0004A5044F2F851C0F60000C0F6000100F050
:103B0000D9FBBDE044F28471C0F600012046FCF709
:103B1000BBFDC8B140F60040C4F201004FF4804143
:103B200000220024FDF7EEFA40F27000C2F200001D
:103B3000847044F24A5044F2E051C0F60000C0F6EE
:103B4000000100F0B7FB9BE044F2E371C0F6000116
:103B50002046FCF799FD002800F0A68040F2A00462
:103B6000C2F200041FA920460022FEF76DF848A902
:103B700020460022FDF7FCFF9DF87C009DF82121E6
:103B80001D909DF87D001A921C909DF87E009DF876
:103B900022211B9044F220409DF8201118929DF89C
:103BA000232140F27006C0F60000C2F2000619920E
:103BB00050F82100B27A44F2DD51C0F60001F77AE4
:103BC00044F2D958002A0C461790C0F6000808BFE6
:103BD0004446002F0F4608BF47463578F07896F8E0
:103BE00004B01590707996F80DA01690084672787A
:103BF000002D08BF4046B57B96F80690B378002AA2
:103C00000A4608BF4246002B96F807E096F808C01F
:103C1000F37B08BF4146CDE9080A15980DF140082D
:103C2000CDE90A0B169888E80A40CDE90E091C98E0
:103C3000CDE90C2500901B9844F2F0720190179882
:103C40001D9B02901898C0F6000203901A98A021BC
:103C500004901998CDF84CC0CDE9050420AC20465D
:103C60000797FCF7DDFA0120307340F24410C2F2EE
:103C7000000021469F22FCF751FD002180F89F1093
:103C800040F2FC0044F27641C2F20000C0F60001AE
:103C90000D226423FEF714FF4FF4FA70FDF70EF9BE
:103CA0007BB0BDE8F08F00BF44F2DC71C0F60001CC
:103CB0002046FCF7E9FC98B1093010F8031C2029D4
:103CC0006ED110F8021C20296CD110F8011C20299B
:103CD0006AD110F8041B2029EFD0041F65E000BF53
:103CE00044F24351C0F600012046FCF7CDFC002809
:103CF00000F09C8044F20F6106301EAFC0F6000158
:103D000048AA1FAB0097FCF7FBFB032840F0EC80B0
:103D10004898172800F3F4801F993B2900F3F0809E
:103D20001E9A012AC0F2EC80CBB2D7B23B4448F6CF
:103D300089069FB2C8F6880640F27004A7FB067693
:103D4000C2F20004E17171090901E07300EB561041
:103D5000A1EB56112272C2B2A3EB81012074182A82
:103D6000617424BF18382074FFF7D4FDE079227CF9
:103D7000217AE37B677C8DE8070044F2876220AC00
:103D8000C0F60002204640210397FCF749FA44F2AE
:103D90004A50C0F60000214600F08CFA70E700BFE0
:103DA000C41E02E0841E00E0441E0FF2D031204603
:103DB0000222FCF77BFC88B1F1A120460322FCF72C
:103DC00075FCF8B144F24A5044F29971C0F6000013
:103DD000C0F6000100F06EFA52E700BF40F270003A
:103DE000C2F200000121C17244F24A5044F2507103
:103DF000C0F60000C0F6000100F05CFAFFF78AFD93
:103E00003EE700BF40F27000C2F200000021C17224
:103E100044F24A5044F27471C0F60000C0F600014A
:103E200000F048FAFFF776FD2AE700BF44F23C5164
:103E3000C0F600012046FCF727FC00286CD044F2B5
:103E40000F6106301EAFC0F6000148AA1FAB0097F5
:103E5000FCF756FB032840F0BD804898172800F374
:103E6000C5801F993B2900F3C1801E9A012AC0F228
:103E7000BD80CBB2D7B23B4448F689069FB2C8F6A4
:103E8000880640F27004A7FB0676C2F20004617156
:103E900071090901A07300EB5610A1EB5611A27134
:103EA000C2B2A3EB8101A074182AE17424BF1838B0
:103EB000A074FFF72FFD6079A27CA179A37BE77C3A
:103EC0008DE8070044F2506220ACC0F600022046A4
:103ED00040210397FCF7A4F944F24A50C0F60000D1
:103EE000214600F0E7F9CBE644F24A5044F2AE51E5
:103EF000C0F60000C0F6000100F0DCF9C0E600BF2B
:103F000044F24A5044F20551C0F60000C0F60001E8
:103F100000F0D0F9B4E600BF44F23551C0F600011C
:103F20002046FCF7B1FB00286CD044F20F6106304C
:103F30001EAFC0F6000148AA1FAB0097FCF7E0FADD
:103F4000032840F083804898172800F38B801F993E
:103F50003B2900F387801E9A012AC0F28380CBB2EE
:103F6000D7B23B4448F689069FB2C8F6880640F2AD
:103F70007004A7FB0676C2F20004E1707109090122
:103F8000607300EB5610A1EB56112271C2B2A3EB85
:103F900081012075182A617524BF18382075FFF734
:103FA000B9FCE078227D2179637B677D8DE807008D
:103FB00044F2196220ACC0F600022046402103976B
:103FC000FCF72EF944F24A50C0F60000214600F0FA
:103FD00071F955E644F24A5044F28351C0F60000AC
:103FE000C0F6000100F066F94AE600BF44F24A500C
:103FF00044F2EE41C0F60000C0F6000100F05AF9AC
:104000003EE600BF44F2EA71C0F600012046FCF72C
:104010003BFB002850D144F2D171C0F6000120468C
:10402000FCF732FB50B340F27000C2F200000121F5
:10403000817244F24A5044F23C71C0F60000C0F66E
:10404000000100F037F9FFF765FC19E644F24A5029
:1040500044F25851C0F60000C0F6000100F02AF901
:104060000EE600BF44F24A5044F2D741C0F60000C9
:10407000C0F6000100F01EF902E600BF44F28D71A7
:10408000C0F600012046FCF7FFFA00283FF4F8AD27
:1040900040F27000C2F200000021817244F24A50E6
:1040A00044F25F71C0F60000C0F6000100F002F9B2
:1040B000FFF730FCE4E500BF44F24A5044F21C51E3
:1040C000C0F60000C0F6000100F0F4F8C820FCF7CC
:1040D000F5FEFFF733F800BF41542B434D47523DE7
:1040E000310D0A005761746572206F6E0000000088
:1040F0005761746572207475726E6564204F4E202E
:1041000076696120534D53005761746572206F6664
:10411000660000005761746572207475726E656484
:10412000204F46462076696120534D530000000021
:104130004C656432206F6E004C45443220747572B9
:104140006E6564204F4E2076696120534D53000008
:104150004C656432206F6666000000004C454432B6
:10416000207475726E6564204F4646207669612022
:10417000534D53004C656433206F6E006F6E00002A
:104180006F6666002DE9F04FC1B015460C468046BB
:10419000FCF7BEFF0646FCF7BBFF801B4FF0000993
:1041A000A8424FF000071FD240F2FC0A013C002752
:1041B000C2F2000A0DF2031B05E000BFFCF7A8FFE6
:1041C000801BA84210D25046594601220A23FEF70E
:1041D0004BFB0028F2D1B8B28442EFDD9DF8031109
:1041E000013708F80010E9E7B8B20DF1030408F848
:1041F000009018A220464FF480714346FCF710F857
:104200002046FCF76CFA82B240F2B400C2F2000021
:1042100021466423FEF754FC14A14046FCF734FA0F
:10422000A8B140F2B400C2F2000012A12C22642313
:10423000FEF746FC40F2FC00C2F2000019A10D227C
:104240006423FEF73DFC42F21070FCF737FE41B0EC
:10425000BDE8F08F53494D38303020526573706F90
:104260006E73653A2025730D0A0000004552524FC7
:104270005200000053494D383030204552524F52C1
:104280002064657465637465642C2072657365745D
:1042900074696E67206D6F64756C652E2E2E0D0A25
:1042A0000000000041542B4346554E3D312C310D4A
:1042B0000A000000F0B5A1B040F2FC060C46C2F2C4
:1042C000000644F298410546C0F60001304603223C
:1042D0006423FEF7F5FB3220FCF7F0FD44F26A415F
:1042E000C0F6000130460B226423FEF7E9FB3220C2
:1042F000FCF7E4FD01AF20A2384680212B46FBF7F6
:104300008FFF3846FCF7EBF982B23046394664231A
:10431000FEF7D6FB3220FCF7D1FD2046FCF7DFF993
:1043200082B2304621466423FEF7CAFB3220FCF7F6
:10433000C5FD15A1304601226423FEF7C1FB4FF4F1
:10434000FA70FCF7BBFD44F2C242C0F600023846E8
:1043500080212B460094FBF763FF3846FCF7BFF93A
:1043600082B240F2B400C2F2000039466423FEF784
:10437000A7FB21B0F0BD00BF41542B434D47533D37
:10438000222573220D0A00001A00000010B5044611
:10439000FCF7A5F982B240F2B400C2F20000214657
:1043A0006423BDE81040FEF78BBB30380A2801D2E9
:1043B000012070470020704710B500290AD0087806
:1043C000002807D005487844FCF708FD002801D0F4
:1043D000002010BD0248784410BD00009605000082
:1043E0008E050000303132333435363738394142AA
:1043F0004344454640305800303132333435363747
:1044000038396162636465664030780004000008F2
:104410000000000000000002000100001000000089
:10442000A24800087148000892480008884800081F
:104430009A4800086A4800087F4800087848000841
:104440000000000000000000010203040607080944
:104450000000000001020304010202030405060734
:1044600008090A0B0C0D0E0F101041542B434D4739
:10447000463D310D0A0041542B434D47443D312CFC
:10448000340D0A004154442B393839313234363630
:10449000313731343B0D0A0041540D0A00253032CA
:1044A000642F253032642F3230253032642025735A
:1044B00020253032643A253032643A253032640D9A
:1044C0000A00534D532073656E7420746F2025735A
:1044D0003A2025730D0A00496E76616C69642041AB
:1044E0006C61726D312076616C7565732100496E67
:1044F00076616C696420416C61726D322076616C0A
:104500007565732100496E76616C696420416C6148
:10451000726D332076616C75657321005379737405
:10452000656D2077696C6C207265736574206E6FA1
:10453000772E2E2E00416C61726D3100416C6172DC
:104540006D3200416C61726D33002B393839313274
:104550003436363137313400496E76616C69642007
:10456000416C61726D3120666F726D6174212055EE
:1045700073653A20416C61726D332048483A4D4D65
:104580002C4400496E76616C696420416C61726DE7
:104590003220666F726D617421205573653A204137
:1045A0006C61726D332048483A4D4D2C4400496E81
:1045B00076616C696420416C61726D3320666F7244
:1045C0006D617421205573653A20416C61726D33C1
:1045D0002048483A4D4D2C44004F4646004F4E006F
:1045E0004C454433207475726E6564204F464620F6
:1045F00076696120534D53004C45443320747572E5
:104600006E6564204F4E2076696120534D53002023
:1046100025643A25642C256400416C61726D204C40
:104620004544312073657420253032643A25303298
:10463000642C20447572202575206D696E73202DC1
:104640003E20456E6420253032643A2530326400C5
:10465000416C61726D204C45443220736574202595
:104660003032643A253032642C204475722025752E
:10467000206D696E73202D3E20456E6420253032FA
:10468000643A2530326400416C61726D204C4544BF
:10469000332073657420253032643A253032642C1F
:1046A00020447572202575206D696E73202D3E2083
:1046B000456E6420253032643A25303264004C4522
:1046C0004431206973204F4E3A20253032642F2523
:1046D0003032642F3230253032642025732025306B
:1046E00032643A25303264004C45443220697320EC
:1046F0004F4E3A20253032642F253032642F32302D
:104700002530326420257320253032643A2530323A
:1047100064004C454433206973204F4E3A202530C5
:1047200032642F253032642F323025303264202518
:104730007320253032643A2530326400446F6F7242
:104740002073656E736F7220656E61626C656400C4
:10475000416C61726D7320656E61626C65640044CA
:104760006F6F722073656E736F722064697361621C
:104770006C656400416C61726D7320646973616281
:104780006C6564004C656433206F66660053656E2B
:10479000736F7273206F666600496E76616C696430
:1047A00020416C61726D7320636F6D6D616E642169
:1047B000205573653A20416C61726D73206F6E2FC6
:1047C0006F666600446F6F72206973206F70656E4C
:1047D0000053656E736F7273206F6E00416C61726F
:1047E0006D73005374617475730052657365740062
:1047F000253032643A253032643A2530326420253F
:104800002E327320253032642F253032642F25302C
:1048100032640A53656E736F72733A25730A416C82
:1048200061726D733A25730A3E4C313A257320410B
:10483000253032643A25303264204425750A3E4CD6
:10484000323A25732041253032643A2530326420D3
:104850004425750A3E4C333A257320412530326495
:104860003A253032642044257500467269646179C6
:10487000004D6F6E6461790053756E646179005309
:1048800061747572646179005765646E6573646103
:104890007900547565736461790054687572736446
:1048A000617900526573746F72696E672064617418
:1048B000652066726F6D206261636B757020726532
:1048C000676973746572732E2E2E0D0A004166742B
:1048D000657220696E69743A20253032642F253064
:1048E00032642F32302530326420253032643A254C
:1048F0003032643A253032640D0A004261636B75D0
:104900007020726567697374657220616C7265618D
:104910006479207365742028307833324632292C2C
:10492000206B656570696E672063757272656E7461
:10493000205254432074696D650D0A00704A0008C6
:10494000000000201000000028010008804A000834
:1049500010000020D80700004401000810010000EA
:1049600043000000F8FFFFFF00404040404040404F
:104970004040414141414140404040404040404032
:1049800040404040404040404005020202020202D6
:104990000202020202020202022020202020202025
:1049A0002020200202020202020290909090909039
:1049B00010101010101010101010101010101010F7
:1049C000101010100202020202028888888888886B
:1049D0000808080808080808080808080808080857
:1049E000080808080202020240000000000000005F
:1049F00000000000000000000000000000000000B7
:104A000000000000000000000000000000000000A6
:104A10000000000000000000000000000000000096
:104A20000000000000000000000000000000000086
:104A30000000000000000000000000000000000076
:104A40000000000000000000000000000000000066
:104A50000000000000000000000000000000000056
:104A60000000000000000000000000000000000046
:104A7000010000001000000000127A000000000099
:04000005080000ED02
:00000001FF
